:100000000C942A000C9447000C9447000C94470071
:100010000C9447000C9447000C9447000C94470044
:100020000C9447000C9447000C9447000C94470034
:100030000C9447000C9447000C9447000C94470024
:100040000C9447000C9447000C9447000C94470014
:100050000C94470011241FBECFE5D8E0DEBFCDBF12
:1000600010E0A0E6B0E0E8EAF4E002C005900D92EE
:10007000A836B107D9F720E0A8E6B0E001C01D928C
:10008000AA36B207E1F70E9449000C9452020C9480
:1000900000000E944E0080E090E008950E94F3006E
:1000A00040E650E066E081E00E9451012FEB87E2DC
:1000B00099E0215080409040E1F700C0000061E0ED
:1000C00080E00E946E0063E08EE090E00E948D016F
:1000D00040E060E083E00E94AC010895CF93DF939D
:1000E000D82FC62F81FD06C040E062E081E00E946B
:1000F000DE0105C041E062E081E00E94DE01D0FD4A
:1001000006C040E061E081E00E94DE0105C041E000
:1001100061E081E00E94DE0141E060E081E00E9458
:10012000DE0189EF90E00197F1F700C0000040E0A8
:1001300060E081E00E94DE01C4FB442740F964E0F6
:1001400080E00E94DE01C5FB442740F965E080E0C5
:100150000E94DE01C6FB442740F966E080E00E9471
:10016000DE014C2F441F4427441F67E080E00E94BB
:10017000DE018091680090916900892B59F141E07E
:1001800060E081E00E94DE0189EF90E00197F1F7E5
:1001900000C0000040E060E081E00E94DE014C2FE2
:1001A000417060E080E00E94DE01C1FB442740F91D
:1001B00061E080E00E94DE01C2FB442740F962E07A
:1001C00080E00E94DE01C3FB442740F963E080E049
:1001D0000E94DE0183EF91E00197F1F700C000007B
:1001E000DF91CF91089561E080E00E94B80161E065
:1001F00081E00E94B8018BE49DE10197F1F700C016
:10020000000060E270E080E090E00E946E0060E23A
:1002100070E080E090E00E946E0060E870E080E0B6
:1002200090E00E946E0089EF90E00197F1F700C026
:10023000000060E070E080E090E00E946E0060EFFF
:1002400070E080E090E00E946E0089EF90E00197FE
:10025000F1F700C0000060E070E080E090E00E94F4
:100260006E0060E170E080E090E00E946E0083EF3D
:1002700091E00197F1F700C0000081E090E09093D9
:100280006900809368000895823050F4603140F432
:1002900090E4899F600D1124606880E00E946E00E8
:1002A0000895EF92FF920F931F93CF93DF93F82E51
:1002B000E62E042F0E94440110E0D0E023C0CD3090
:1002C00059F48E2D90E08D0F911D20E1F29E800D4E
:1002D000911D11248097D4F48E2D90E08D0F911DE7
:1002E000E0E1FE9E800D911D1124409721F460E015
:1002F00081E00E9444016C2F82E00E946E00DF5F6B
:100300000F5F1F4FF801C081C111D9CFDF91CF918D
:100310001F910F91FF90EF9008950F931F93CF932C
:100320008C01660F660F660F606480E00E946E00AD
:10033000C0E008C0F801EC0FF11D608182E00E946E
:100340006E00CF5FC830B0F362E080E00E946E00C4
:10035000CF911F910F910895CF93C82F862F642FAF
:100360000E9444016C2F82E00E946E00CF9108959C
:100370006130A1F4813049F028F0823049F08330B7
:1003800051F008958FEF8ABB08958FEF87BB0895D2
:100390008FEF84BB08958FEF81BB0895813041F0CA
:1003A00028F0823039F0833039F008951ABA089570
:1003B00017BA089514BA089511BA0895683008F06C
:1003C00070C0843008F06DC04130A1F5813089F0F3
:1003D00028F08230C9F0833011F108952BB381E009
:1003E00090E002C0880F991F6A95E2F7822B8BBBC1
:1003F000089528B381E090E002C0880F991F6A95A4
:10040000E2F7822B88BB089525B381E090E002C01B
:10041000880F991F6A95E2F7822B85BB089522B356
:1004200081E090E002C0880F991F6A95E2F7822B65
:1004300082BB0895813091F028F08230D9F083306A
:1004400029F108952BB381E090E002C0880F991F35
:100450006A95E2F7809582238BBB089528B381E0EB
:1004600090E002C0880F991F6A95E2F78095822379
:1004700088BB089525B381E090E002C0880F991FE2
:100480006A95E2F78095822385BB089522B381E0C7
:1004900090E002C0880F991F6A95E2F78095822349
:0804A00082BB0895F894FFCF20
:0804A80041686D65640D000060
:00000001FF
